:020000040000FA
:04000000FEEFFFF020
:020000040001F9
:10FEB40012001200010204081020800EBE6E000E13
:10FEC4000401006F000EC66E1200800EBE6E900E0E
:10FED40003011A6F540E1B6F120003011A9F111CA9
:10FEE400136E121C146E61004CF418F31450196F45
:10FEF400B19E1A8F1200000E096E000E0A6E000EDB
:10FF04000B6E000E0C6E000E056E000E066E000EDB
:10FF1400076E000E086E1200B80EF66EFE0EF76E37
:10FF2400010EF86E01EE18F110EE06F00900F5C4AA
:10FF3400EEF4E550E150FAE101EE01F1100EEE6A43
:10FF4400E806FDE10001A7EFFFF0048E5AECFFF094
:10FF54007DECFFF05FECFFF067ECFFF0C7ECFFF027
:10FF6400BE9E5BECFFF0030E126EE80E116E6FEC9A
:10FF7400FFF0B1AEC0EFFFF0C2EFFFF0BBEFFFF058
:10FF8400BE8EB0EFFFF0FEEFFFF021EE18F111EEA0
:10FF940011F1050EDBC4E3F4E806FCE20D4A0E2A77
:10FFA400F40E0D1806E10E04D8A4DBEFFFF0DDEF2C
:10FFB400FFF0FDEFFFF0000E0E6E000E0D6E6100FF
:10FFC400F8F217F5800E1716110E0F24D96EDA6A9F
:10FFD400050EDA22DF50171261005CF4BEF40F2A1A
:10FFE400060E0F18D8A4F9EFFFF0FBEFFFF0FDEFBA
:0CFFF400FFF0000E0F6E12008EEFFFF009
:020000040020DA
:10000000FF0FFF0FFF0FFF0FFF0FFF0FFF0FFF0F80
:10001000FF0FFF0FFF0FFF0FFF0FFF0FFF0FFF0F70
:020000040030CA
:0A0000008CFEFFFC9FFFFFFFFFFFD7
:00000001FF
