:020000040000FA
:04000000FEEFFFF020
:020000040001F9
:10FF3C00120012001200000EBE6E000E0401006FC3
:10FF4C00000EC66E120001EE01F10D0EEE6AE8060F
:10FF5C00FDE10001C3EFFFF0000E096E000E0A6E0A
:10FF6C00000E0B6E000E0C6E000E056E000E066E73
:10FF7C00000E076E000E086E1200048E9EECFFF051
:10FF8C00B2ECFFF0A1ECFFF0A0ECFFF0D4ECFFF032
:10FF9C009FECFFF0CCEFFFF0FEEFFFF05D0E0E6E6E
:10FFAC00700E0F6E040E106E000E116EBE28BE6E1B
:10FFBC00F2EFFFF00E06000E0F5A105A115ABF0E38
:10FFCC00BE18D8A4ECEFFFF0EEEFFFF0F2EFFFF06D
:10FFDC00800EBE6EFDEFFFF00E500F1010101110C2
:10FFEC00D8A4FBEFFFF0FDEFFFF0E0EFFFF0120005
:04FFFC00A9EFFFF07A
:020000040020DA
:10000000FF0FFF0FFF0FFF0FFF0FFF0FFF0FFF0F80
:10001000FF0FFF0FFF0FFF0FFF0FFF0FFF0FFF0F70
:020000040030CA
:0A0000008CFEFFFC9FFFFFFFFFFFD7
:00000001FF
