:020000040000FA
:04000000FEEFFFF020
:020000040001F9
:10FEC200120012001200800EBE6E000E0401006FBE
:10FED200000EC66E120001EE01F10D0EEE6AE8068A
:10FEE200FDE1000186EFFFF0000E096E000E0A6EC2
:10FEF200000E0B6E000E0C6E000E056E000E066EEE
:10FF0200000E076E000E086E1200048E61ECFFF008
:10FF120075ECFFF064ECFFF063ECFFF097ECFFF0A0
:10FF220062ECFFF08FEFFFF0FEEFFFF0800E0E6E3F
:10FF32001A0E0F6E060E106E000E116E6100F8F2B0
:10FF420015F5800EBE161550010A126E1550010BE2
:10FF5200136EB9EFFFF013501324136E12C515F58B
:10FF620013C514F515501418126E15501414136E8F
:10FF72001350D8A4BFEFFFF0C1EFFFF0ACEFFFF0DA
:10FF820012C515F5610048F4BEF4CDEFFFF00E0680
:10FF9200000E0F5A105A115A0E500F101010111055
:10FFA200D8A4D6EFFFF0D8EFFFF0C8EFFFF0BF0EF6
:10FFB2001518D8A4DFEFFFF0E1EFFFF0FDEFFFF03F
:10FFC200800EBE6E800E0E6E1A0E0F6E060E106E34
:10FFD200000E116EF2EFFFF00E06000E0F5A105ACD
:10FFE200115A0E500F1010101110D8A4FBEFFFF091
:0EFFF200FDEFFFF0EDEFFFF012006CEFFFF0FF
:020000040020DA
:10000000FF0FFF0FFF0FFF0FFF0FFF0FFF0FFF0F80
:10001000FF0FFF0FFF0FFF0FFF0FFF0FFF0FFF0F70
:020000040030CA
:0A0000008CFEFFFC9FFFFFFFFFFFD7
:00000001FF
