:020000040000FA
:04000000FEEFFFF020
:020000040001F9
:10FF0C0012001200120001EE01F10D0EEE6AE8066D
:10FF1C00FDE10001AFEFFFF0800EBE6E000E04019C
:10FF2C00006F000EC66E200EC76E000E086F12001A
:10FF3C00000E096E000E0A6E000E0B6E000E0C6E9B
:10FF4C00000E056E000E066E000E076E000E086E9B
:10FF5C001200048E86ECFFF09EECFFF092ECFFF0AA
:10FF6C0088ECFFF0C0ECFFF087ECFFF0B8EFFFF08F
:10FF7C00FEEFFFF0000E0E6E000E0F6E000E106EF8
:10FF8C00000E116E000E136E000E126ECFBAD1EF72
:10FF9C00FFF0D3EFFFF0D7EFFFF0000E136E010E62
:10FFAC00126ECFAADCEFFFF0DEEFFFF0F2EFFFF006
:10FFBC0012041310D8A4E5EFFFF0E7EFFFF0F2EF17
:10FFCC00FFF0BE2A010E0E26000E0F221022112267
:10FFDC00000E136E000E126EBF0EBE18D8A4F9EFF1
:10FFEC00FFF0FBEFFFF0CCEFFFF0800EBE6E1200C7
:04FFFC0089EFFFF09A
:020000040020DA
:10000000FF0FFF0FFF0FFF0FFF0FFF0FFF0FFF0F80
:10001000FF0FFF0FFF0FFF0FFF0FFF0FFF0FFF0F70
:020000040030CA
:0A0000008CFEFFFC9FFFFFFFFFFFD7
:00000001FF
